:0600000002006802006628
:03000B000200668A
:0300130002006682
:03001B000200667A
:03002B000200666A
:0300330002006662
:03003B000200665A
:0300430002099C13
:03004B000200664A
:0300530002006642
:03005B000200663A
:0500630002006680FEB2
:03002300020123B4
:2011C0000201A2000204B5000204C100020524000200D6000200F8002200000022000000A7
:2011E0002200000022000000220000002200000022000000220000002200000022000000DF
:2000680075818075D0007808748098F9E4F608D9FC75A80075E8E075D840758E0190E600A0
:200088007410F090E6707400F090E6717400F090E6727400F09000B27400F09000B37400A6
:2000A800F09000B47400F09000B57400F09000B67400F090E65C7400F090E6607400F07568
:0E00C800A8807E007F0012073A75818080F4C8
:2000D600A802A903800B8F828E830FBF00010EE9F0AB05AA041DBB00011CEA20E7034B704F
:0200F600E52201
:2000F800A802A90380148F828E830FBF00010EE08D828C830DBD00010CF0AB01AA0019BB10
:0B011800000118EA20E7034B70DC2216
:20012300C0E0C082C083C007C0D0C02AC02BC02CC02D75D000AF9874015F600E90E044749C
:2001430001F0A3E599F0EF54FEFF74025F600990E046E4F0EF54FDFF8F98D02DD02CD02B38
:0D016300D02AD0D0D007D083D082D0E03297
:20017000C2AC759840C28EAF8EEF4410F58EAF87EF44C0F587AF89740F5F4420F589758DBE
:12019000D9D28E75985090E046E4F090E044F0D2AC22F9
:2001A20090E044E0602C740F5F70047DFF802190E045E0FD90E044E4F074205F6012ED64DA
:1901C20080241F500BED648024054004ED54DFFDED2274025F70C9E42288
:2001DB0090E020EEF0A3EFF0A3EAF0A3EBF090E016E4F0A3F07B487AE07D07FC90E020E01F
:2001FB00FEA3E0FF1202E2E4F521F52290E024F0A3F090E024E0FEA3E0FF90E0481209F48B
:20021B00E0F520642D605BE52064802450506A745E6520606490E021E054406029E5206459
:20023B008024465006E52024F9F520AF22AE217D04120A3C740F5520FB3395E0FA4EF521BA
:20025B00EF4BF522801CAD22AC217F0A7E00120A13740F5520FB3395E0FAEF2BF522EE3AD6
:20027B00F52190E0241209FFE0FAA3E0FB24F8EA6480347F400302020D90E024E0FAA3E065
:20029B00FB4A7007E520700375200D90E021E0540F60051460078005532100800090E022AE
:2002BB00E0FAA3E0F5828A83E521F0E522A3F0E520FB3395E0FA90E026E4F0EBA3F090E0B8
:0702DB0026E0FEA3E0FF2274
:2002E20090E018EEF0A3EFF0A3ECF0A3EDF0A3EAF0A3EBF090E01A1209E090E016E0FAA392
:20030200E0FB4A7005E4F511F51290E044E060FAA3E0F51090E044E4F0741B6510700302D9
:2003220004B0740A6510600AE510B40B0280030203B5E5124511606C90E01EE511F0E51233
:20034200A3F0800D7F087E001204B590E01E1209E090E01EE0FAA3E0FB4A70E890E01EE527
:2003620011F0E512A3F0800D7F207E001204B590E01E1209E090E01EE0FAA3E0FB4A70E86A
:2003820090E01EE511F0E512A3F0800D7F087E001204B590E01E1209E090E01EE0FAA3E08C
:2003A200FB4A70E8E510B40A057FFE7EFF227FFD7EFF22E510B40D1290E01CE0FAA3E0F509
:2003C200828A83E4F0AF12AE112290E01AE0FAA3E0FB65127008E5116A700302030C747F6E
:2003E20065106005E510B40821E5124511700302030C7F657E0A1204C190E01C1209E0E5CF
:200402001270021511151202030C90E018E0FCA3E0FD7F807E001209BCEF4E6052E5106478
:20042200802450504A745E6510604474405D603F851013E5106480241F500BE51064802475
:200442000540035313DFE51364802450400302030CE51364802439500302030CE5136480F0
:200462002446500BE5136480243F400302030C90E019E054206013E5106480241F500BE576
:20048200106480240540035310DF90E046E070FA7401F085109990E01C120A288F828E8333
:1304A200E510F00512E5127002051102030C7FFF7EFF229E
:0C04B50090E046E070FA7401F08F99228C
:2004C10090E03AEEF0A3EFF0801490E03A120A288F828E83E493FF3395E0FE1204B590E016
:0E04E1003AE0FAA3E0F5828A83E49370DD220C
:2004EF0090E02EEEF0A3EFF0A3ECF0A3EDF0801990E02E120A288F828E83E0FF3395E0FECE
:15050F001204B590E0301209E090E030E0FAA3E0FB4A70DC22C1
:2005240090E028EEF0A3EFF0A3ECF0A3EDF0A3EAF0A3EBF00205AB90E028E0FEA3E0FF908B
:20054400E02BE0FD120A4C740F5F4430752600F52724C6E5266480347F502090E02DE0546D
:2005640020700DE5272427F527E43526F526800BE5272407F527E43526F52690E02DE05404
:20058400017013E52764304526700B90E02AE0FAA3E0FB4A7011AF27AE261204B590E02C7F
:1E05A4007F017E001209D690E02A7F047E001209C3E0FAA3E0FBEA20E70302053B2221
:040A6500082008005D
:200A69000D0A202020003A2000202020000D0A2020204E657874203F2028592F4E29200060
:0B0A89003031000D0A3F5553422000A1
:200A94000D0A455A2D5553422F4658323E3E00202D3E20000D0A2E2E2E41646472657373E8
:200AB400203D20000D0A20202056616C75652028000D0A2020200041646472657373203F4D
:120AD40020000D0A2E2E2E00203F3F3F0029203F2000CA
:2005C20090E040EEF0A3EFF090E040E0FEA3E0FF1204C17F237E001201A2F5293395E0F592
:1205E20028E5296459452870057F017E0022E4FFFE220F
:2005F40090E032EEF0A3EFF0A3ECF0A3EDF090E034E0FEA3E0FF1204C190E032E0FAA3E00C
:0B061400FBE4FDFC7FE2FE1201DB2294
:20061F0090E000EEF0A3EFF0A3ECF0A3EDF090E004E4F0A3F002072790E004E0FAA3E0FB15
:20063F0064104A70167F767E0A1205C2EF144E600302073990E004E4F0A3F07F697E0A12AE
:20065F0004C17B217A007D107C0090E000E0FEA3E0FF1205247F6F7E0A1204C1E4F516F55B
:20067F001790E002E0FAA3E0FB4A70097F727E0A1204C1806490E000120A288F828E83E0CD
:20069F00F5153395E0F5147B217A007D087C00AF15AE14120524E5176407451660097F20DE
:2006BF007E001204B580077F2D7E001204B553140053157FE51524E0E5146480347F400634
:2006DF0075140075152EAF17AE1690E0061209F4E515F090E0021209E00517E517700205C5
:2006FF0016E51724F0E5166480347F40030206807F207E001204B57D107C007F067EE01272
:1B071F0004EF90E0041209FF90E002E0FAA3E0FBEA20E7064B6003020637226E
:20073A007510E0751150E4FBFA7D10FCAF11AE101200D6851182851083E07017AF11AE1087
:20075A00120794AF11AE101209A08511828510837401F0851182851083E0B401098511821E
:1A077A008510837403F0851182851083E0B403C3AF11AE101209A480F72286
:2007940090E000EEF0A3EFF0900A89E493C454F054F0A3FAE493540F4A90E000FCE0FAA3E5
:2007B400E0FB240EF582E43AF583ECF090E000E0FAA3E0FB2408F582E43AF58374E0F07476
:2007D40060A3F090E000E0FAA3E0FB240AF582E43AF5837440F0E4FBFA90E000E0FCA3E0C3
:2007F400FD240AF582E43CF583E0FD7C0090E000E0FEA3E0FF2408F582E43EF583E0FEA3C4
:06081400E0FF1200D622F5
:20081A0090E03CEEF0A3EFF090E03CE0FAA3E0FB4A7007E4F523F52480067523007524031E
:20083A007402552460031208A1E4F523F5247F21FE1201A2F525700D90E03CE0FAA3E0FB8E
:20085A004A604380DB74516525603B752300752402E52524F3601D24C9600A24F26010247A
:20087A00FB600780171208A980B61208CA80B112094180AC75230075240380A47FDC7E0A94
:07089A001204C102083A221A
:0808A1007F947E0A1204C122BB
:2008A9007DA87C0A7F3E7EE01205F4EF642F4E600F7D807C0090E03EE0FEA3E0FF12061F61
:0108C900220C
:2008CA00751800751901E5194518600E7FD67E0A1204C1E4F518F51980077FC57E0A12040D
:2008EA00C17DCB7C0A7F367EE01205F4EF642F4E604490E036E0F51AA3E0F51B7FB87E0AE6
:20090A001204C17B217A007D087C00851B82851A83E0FF7E001205247DE17C0A7F387EE00A
:17092A001205F4EF642F4E600D90E039E0851B82851A83F08090227F
:20094100751C00751D01E51D451C600E7FD67E0A1204C1E4F51CF51D80077FC57E0A12047D
:20096100C17DCB7C0A7F427EE01205F4EF642F4E602890E042E0F51EA3E0F51F7FA37E0A7F
:1B0981001204C17B217A007D087C00851F82851E83E0FF7E0012052480AC223B
:20099C0002120000021204000212080002120C0002121000021214000212180002121C002B
:0709BC00ED5FFFEC5EFE227F
:1309C300C3A3E09FFFF0E582700215831582E09EFEF022B7
:0A09D600E04EF0FEA3E04FF0FF2218
:1409E000AE83AF82A3E024FFF0CFF5828E83E034FFF0FE2291
:0B09F400EF2582F582EE3583F58322AB
:1409FF00AE83AF82A3E02401F0CFF5828E83E03400F0FE226F
:150A1300C0F0ED8FF0A4CFC5F0CCA42CCE8DF0A42EFED0F022F1
:140A2800A3E0FF2401F0E582700215831582E0FE3400F022F7
:100A3C00ED540F600AFDEF25E0CE33CEDDF9FF2239
:100A4C00ED540F600AFDEEC313CF13CFDDF9FE2278
:090A5C00782AE6F0A308DFFA2273
:201200000218E4000212600002132700220000002200000022000000220000002200000076
:20E100001201000200000040D00801A00001010200010A06000200000040010009022700A7
:20E12000010100C0000904000003FF00FF00070502020002000705860100120107058802C1
:20E140000002000009022700010100C0000904000003FF00FF0007050202400000070586D9
:20E1600001400001070588024000000004030904140341004F0052002C0020004C0054008E
:20E1800044002E001C0344004900470049002D00520045004300450049005600450052004F
:02E1A00000007D
:201220000211C0000211C4000211C8000211CC000211D0000211D4000211D8000211DC00A6
:201240000211E0000211E4000211E8000211EC000211F0000211F4000211F8000211FC0086
:20126000755C1F755D90E4FBFA7D31FCAF5DAE5C121230E55D2419F582E4355CF58374E6F2
:20128000F074B8A3F0E55D241BF582E4355CF58374E1F07400A3F0E55D241DF582E4355CFF
:2012A000F58374E1F07412A3F0E55D241FF582E4355CF58374E1F07444A3F0E55D2421F563
:2012C00082E4355CF58374E1F0741CA3F0E55D2423F582E4355CF58374E1F0746CA3F0E5AD
:2012E0005D2425F582E4355CF58374E1F07470A3F0E55D2427F582E4355CF58374E1F0747E
:2013000084A3F0E55D2429F582E4355CF58374E1F074A0A3F0E55D242BF582E4355CF583E2
:071320007404F012171D22F6
:2013270075501F755190E5512416F582E43550F583E060157F017E00121896E5512416F52C
:1513470082E43550F583E014F0AF51AE5012135C8E528F5322E7
:021AD800FFFF0E
:20135C00901F80EEF0A3EFF0E4F556F557901F80E0FAA3E0FB2408F582E43AF583E0F5557D
:20137C003395E0F554901F80E0FAA3E0FB2430F582E43AF583E054046038901F8EE0FCA3EC
:20139C00E0FD65557005E5546C60277FDA7E1A1212287B217A007D087C00AF55AE5412127B
:2013BC002C7FE07E1A121228901F8EE554F0E555A3F0E5546003021472E555601414602AFF
:2013DC0024F0700302145E24A0700302149D021472901F80E0FAA3E0FB2412F582E43AF53D
:2013FC0083E070030214BB021494901F80E0FEA3E0FF1214D3901F82EEF0EFA3F0901F8236
:20141C00E0FAA3E0FBEA701DEB601114600514600B80127554007555110213817554007583
:20143C005571021381901F80E0FAA3E0FB2409F582E43AF583E04401F07554007555810248
:20145C001381901F80E0FEA3E0FF1216DA755400755571021381901F80E0FAA3E0FB2412F4
:20147C00F582E43AF583E014F07F017E001217047556FF7557FF8022755400755501021354
:20149C0081901F80E0FAA3E0FB2412F582E43AF583E014F0E4FFFE121704E4F554F55590EC
:1714BC001F80E0FAA3E0FB2408F582E43AF583E555F0AF57AE562293
:2014D300901F88EEF0A3EFF0901F88E0FAA3E0FB2419F582E43AF583E0F55AA3E0F55B8502
:2014F3005B82855A83E0540603600814601A146017801CAD5BAC5A901F88E0FEA3E0FF1289
:1A151300152D8E588F59800DE4F558F55980067558FF7559FFAF59AE582253
:20152D00901F84EEF0A3EFF0A3ECF0A3EDF0901F86E0FAA3E0FB2401F582E43AF583E02449
:20154D00FA7019901F86E0FCA3E0FD901F84E0FEA3E0FF1215738E5E8F5F8005E4F55EF5B2
:06156D005FAF5FAE5E22DD
:20157300901F8AECF0A3EDF0A806A907756800756901901F8AE0FAA3E0FB2404F582E43A5B
:20159300F583E0FCA3E0FDAA04AB05ED4C60027401600F74046B700574096A60057FFF7EE7
:2015B300FF22901F8AE0FAA3E0FB2402F582E43AF583E0FCA3E0FDAA04AB0574FF5C7566CF
:2015D30000F56774FF5B756000F561E56060030216CFE56114601314604E1470030216786E
:2015F30024FD60251460600216CFE9241BF582E438F583E0FAA3E0FBE9240AF582E438F54D
:2016130083EAF0EBA3F00216D5E9241DF582E438F583E0FAA3E0FBE9240AF582E438F58340
:20163300EAF0EBA3F00216D5E9241FF582E438F583E0FAA3E0FBE9240AF582E438F583EAB7
:20165300F0EBA3F00216D5E92421F582E438F583E0FAA3E0FBE9240AF582E438F583EAF08F
:20167300EBA3F0805DE9242BF582E438F583E0FAFD3395E0FCD3ED9567EC956630D202B2E5
:20169300E730E711EAFB3395E0FAC3EB9401F567EA9400F566AF67AE66E92423FBE438FABE
:2016B3008B828A83121A93E0FAA3E0FBE9240AF582E438F583EAF0EBA3F080067568FF7595
:0716D30069FFAF69AE682258
:2016DA00901F8CEEF0A3EFF0901F8CE0FAA3E0FB240AF582E43AF583E0FEA3E0FF1216FB04
:0116FA0022CD
:081ADA003E6570303A00200067
:0916FB0090E6B3EEF0A3EFF0223B
:1917040090E6A0E0FDEF4E7006ED4402FD8004ED4403FD90E6A0EDF0222C
:20171D00E4FFFE12187AC2E890E60174EFF0A374E8F07F037E0012186290E603740FF07FCD
:20173D00037E0012186290E6047480F07F037E0012186290E6047402F07F037E0012186229
:20175D0090E6047404F07F037E0012186290E6047406F07F037E0012186290E6047408F0A8
:20177D007F037E0012186290E604E4F07F03FE12186290E6097423F07F037E001218629044
:20179D00E6107420F07F037E0012186290E6117420F07F037E0012186290E61274A3F07F81
:2017BD00037E0012186290E6137420F07F037E0012186290E61474D3F07F037E0012186219
:2017DD0090E61574E2F07F037E0012186290E6187411F07F037E0012186290E61A740DF0FF
:2017FD007F037E0012186290E61B740DF07F037E0012186290E6247402F0A3E4F07F03FEBB
:20181D0012186290E6267402F0A3E4F07F03FE12186290E6427403F0FF7E0012186290E6FC
:20183D00B57401F090E65C7421F090E65EE4F090E6627440F090E6687402F0D2E87F017EFA
:05185D000012187A22C0
:1818620002186600A907A8061FB900011EE820E7064960030218652257
:1C187A0090E680E0FD54F5FDEF4E6006ED4402FD8004ED4408FD90E680EDF022B7
:20189600901F80EEF0A3EFF0901F80E0FAA3E0FB4A701B90E624E4F0A37440F07F037E0092
:2018B60012186290E626E4F0A37440F0801890E6247402F0A3E4F07F03FE12186290E62618
:0E18D6007402F0A3E4F07F037E001218622279
:2018E400C2AFC0E0C0D0C082C08375D00875631F7564908591627410556270030219CB53B2
:2019040062EF85629190E666E0F565E5642411F582E43563F583E565F0601324F4601F2493
:20192400FC603E24FC6053249C60680219CB90E65DE0F562540170030219CB0219B790E6C8
:201944005DE0F562540870030219CBE5642414F582E43563F583E004F090E65D7408F080BB
:201964006690E65DE0F5625410605CAF64AE631219D790E65D7410F0804D90E65DE0F5628F
:2019840054206043AF64AE63121A3590E65D7420F0803490E663E0F5625440602AE5642401
:2019A40017F582E43563F583E004F090E6637440F08014E5642412F582E43563F583E004EE
:1319C400F090E65D7401F0D083D082D0D0D0E0D2AF32221E
:2019D700EF241FF582E43EF583AA83AB8274E1F07444A3F0EF2421F582E43EF58374E1F039
:2019F700741CA3F08B828A83E0FCA3E0FD2401F582E43CF5837402F0EF2421F582E43EF5DB
:1E1A170083E0F8A3E0F92401F582E438F5837407F0EF2415F582E43EF583E004F02210
:201A3500EF241FF582E43EF583AA83AB8274E1F0741CA3F0EF2421F582E43EF58374E1F002
:201A55007444A3F08B828A83E0FCA3E0FD2401F582E43CF5837402F0EF2421F582E43EF554
:1E1A750083E0F8A3E0F92401F582E438F5837407F0EF2416F582E43EF583E004F022B1
:101A9300C3EF33CE33CE2582F582E5833EF5832231
:1E1AA300E493A3CCC583CCCDC582CDF0A3CCC583CCCDC582CDEFB582E7EEB583E322BE
:091AC1007866E6F0A308DFFA22C2
:0E1ACA00901AD87C1F7D8E7E1A7FDA121AB811
:00000001FF
